{
  "abi": [
    {
      "type": "function",
      "name": "getEthSignedMessageHash",
      "inputs": [
        {
          "name": "_messageHash",
          "type": "bytes32",
          "internalType": "bytes32"
        }
      ],
      "outputs": [
        {
          "name": "",
          "type": "bytes32",
          "internalType": "bytes32"
        }
      ],
      "stateMutability": "pure"
    },
    {
      "type": "function",
      "name": "getMessageHash",
      "inputs": [
        {
          "name": "message",
          "type": "string",
          "internalType": "string"
        }
      ],
      "outputs": [
        {
          "name": "",
          "type": "bytes32",
          "internalType": "bytes32"
        }
      ],
      "stateMutability": "pure"
    },
    {
      "type": "function",
      "name": "verify",
      "inputs": [
        {
          "name": "signer",
          "type": "address",
          "internalType": "address"
        },
        {
          "name": "message",
          "type": "string",
          "internalType": "string"
        },
        {
          "name": "signature",
          "type": "bytes",
          "internalType": "bytes"
        }
      ],
      "outputs": [
        {
          "name": "",
          "type": "bool",
          "internalType": "bool"
        }
      ],
      "stateMutability": "pure"
    }
  ],
  "bytecode": {
    "object": "0x6080604052348015600e575f80fd5b5061042f8061001c5f395ff3fe608060405234801561000f575f80fd5b506004361061003f575f3560e01c80632dd34f0f14610043578063b446f3b21461006b578063fa5408011461008c575b5f80fd5b6100566100513660046102e8565b61009f565b60405190151581526020015b60405180910390f35b61007e61007936600461037c565b6100e0565b604051908152602001610062565b61007e61009a3660046103b6565b61010f565b5f806100aa846100e0565b90505f6100b68261010f565b9050856001600160a01b03166100cc8286610149565b6001600160a01b0316149695505050505050565b5f816040516020016100f291906103cd565b604051602081830303815290604052805190602001209050919050565b6040517f19457468657265756d205369676e6564204d6573736167653a0a3332000000006020820152603c81018290525f90605c016100f2565b5f805f80610156856101c3565b604080515f8152602081018083528b905260ff8316918101919091526060810184905260808101839052929550909350915060019060a0016020604051602081039080840390855afa1580156101ae573d5f803e3d5ffd5b5050604051601f190151979650505050505050565b5f805f835160411461021b5760405162461bcd60e51b815260206004820152601860248201527f696e76616c6964207369676e6174757265206c656e6774680000000000000000604482015260640160405180910390fd5b5050506020810151604082015160609092015190925f9190911a90565b634e487b7160e01b5f52604160045260245ffd5b5f8067ffffffffffffffff84111561026657610266610238565b50604051601f19601f85018116603f0116810181811067ffffffffffffffff8211171561029557610295610238565b6040528381529050808284018510156102ac575f80fd5b838360208301375f60208583010152509392505050565b5f82601f8301126102d2575f80fd5b6102e18383356020850161024c565b9392505050565b5f805f606084860312156102fa575f80fd5b83356001600160a01b0381168114610310575f80fd5b9250602084013567ffffffffffffffff81111561032b575f80fd5b610337868287016102c3565b925050604084013567ffffffffffffffff811115610353575f80fd5b8401601f81018613610363575f80fd5b6103728682356020840161024c565b9150509250925092565b5f6020828403121561038c575f80fd5b813567ffffffffffffffff8111156103a2575f80fd5b6103ae848285016102c3565b949350505050565b5f602082840312156103c6575f80fd5b5035919050565b5f82515f5b818110156103ec57602081860181015185830152016103d2565b505f92019182525091905056fea2646970667358221220c6c45440372f26ecada5e6dfc6ad80d4dbaec83564064b0a557a2e30b9e78cf764736f6c634300081a0033",
    "linkReferences": {}
  },
  "methodIdentifiers": {
    "getEthSignedMessageHash(bytes32)": "fa540801",
    "getMessageHash(string)": "b446f3b2",
    "verify(address,string,bytes)": "2dd34f0f"
  },
  "id": 23
}